:1002B7001207D212024A1206FD12050AE51A541055
:1002C700F4600312050A12077EE51A30E40DC2B680
:1002D7007FC87E00120006D2B6800BC2B77FC87EE9
:1002E70000120006D2B7120026E51760061206B202
:1002F7001207CAE540C39420400CE51A20E6FB7FAD
:10030700201203DF80E0308DDDE540D3940040D636
:0C031700E51A20E6FBAF401203DF80CAAD
:0A04CF00C100063CFA010000000025
:10068C00AB3D7E00E53F2541F9EE353EFAE540D322
:10069C009400400D15400541E541953C4003E4F5BF
:0506AC004112014BFFAB
:0106B1002226
:020323008F2128
:10032500E540C3953C5054E5402541FFE433FEC309
:10033500EF953C7480F86E98401C7C00E53F2540A5
:10034500F9EC353EFAE92541F9EC3AFAC3E9953C71
:10035500F9EA940080117E00E53F2540F9EE353E2F
:10036500FAE92541F9EE3A853D22F5238924AB22A8
:0B037500AA23A924E5211201910540F4
:01038000225A
:1006FD00759850438E04538EFE53890F75D7DF7551
:0F070D00D6FF438E01438E10D2ACD2BCD2AF22A6
:030023000204359F
:10043500C0E0C0F0C083C082C0D075D000C000C08D
:1004450001C002C003C004C005C006C00730980F34
:10045500C298AF991203231205A6758CCFC28D30B1
:100465009904C299C200D007D006D005D004D003A4
:10047500D002D001D000D0D0D082D083D0F0D0E04F
:010485003244
:0807CA002000FD8F99D20022EE
:1006D8008B2A8A2B892CAB2AAA2BA92C12014B60B6
:1006E80013052CE52C7002052B14F912014BFF128F
:0506F80007CA80E222A8
:10077E00538E7F5389F0438901758A2C758CCFC2B5
:04078E008DD28C225A
:1004D900010840011A00011900050E1234567890DE
:0F04E9000509123456789006137800004200007F
:0D07A50043CDC08FCFE5CD30E7FBAFCF22B5
:0707D20043CDC075CED0221B
:0707530012075A7DFF7FE150
:02075A00AE05EA
:0C075C00C2921207A5AF061207A5D292A8
:01076800226E
:0C07B200C2921207A5E4FF1207A5D29224
:0107BE002218
:060608008B2F8A308931BE
:10060E00C2921207A5E4FEEEC395325017E4FF1214
:10061E0007A5AB2FAA30A9318E82758300EF120188
:06062E00A30E80E3D2924E
:0106340022A3
:060574008B2A8A2B892C62
:10057A00C2921207A5AE07E4FDEDC3952D5018AB44
:10058A002A052CE52CAA2B7002052B14F912014B13
:0B059A00FF1207A50D80E2D292AF0611
:0105A5002233
:10024A00C296431A04431A027D037F2312075AAD4A
:10025A00087F2512075A7D277F2612075A7D017FBC
:10026A002112075A7F2212075A7B007A00790975F0
:10027A002D057F2A1205747D057F3D12075A7D01DF
:10028A007F3C12075A7DFF7FE212075A7B007A00F1
:10029A00790E752D057F301205747D1F7F24120794
:0D02AA005312071CD296D288D2A8D2AF22E0
:10076900C2967D0E7F20120753D296531A7F531AD1
:05077900BF531AF72236
:10071C00C2967D0F7F2012075A7DFF7FE212075A87
:0F072C00D296431A80531ABFE4F519531AF722D5
:10050A00E4FB7A0079297532057F101206087F1CF0
:10051A001207B2EF6401701BFF740E2FF8E6FE7427
:10052A00292FF8E6B50605431A10800280050FBF89
:06053A0005E722531AEF51
:010540002298
:10079200AC07C296EC547FFD7F2512075AEC547FBA
:0307A200F5082235
:030003000201CB2C
:1001CB00C0E0C0F0C083C082C0D075D000C000C0FA
:0D01DB0001C002C003C004C005C006C0077B
:1001E8007F071207B2AC07AD047F2712075AEC301D
:1001F800E512C2B7531ABF431A20E51A30E10312B9
:10020800071CD2B7EC30E411120756531ABF531A21
:10021800DFE51A30E10312071CEC30E60AC2B643E8
:070228001A08120541D2B6CD
:10022F00D007D006D005D004D003D002D001D00023
:0B023F00D0D0D082D083D0F0D0E032CD
:1006B200AB147E00E5162518F9EE3515FAE517D3C9
:1006C2009400400D15170518E51895134003E4F53D
:0506D2001812014BFFAE
:0106D7002200
:020381008F25C6
:10038300E517C395135054E5172518FFE433FEC34F
:10039300EF95137480F86E98401C7C00E5162517C2
:1003A300F9EC3515FAE92518F9EC3AFAC3E995138E
:1003B300F9EA940080117E00E5162517F9EE35154C
:1003C300FAE92518F9EE3A851426F5278928AB268C
:0B03D300AA27A928E5251201910517B3
:0103DE0022FC
:100541007F601207B28F19E519D394204005120775
:100551001C801CC2927F611207A5E4FDEDC39519B1
:10056100500BE4FF1207A51203810D80EFD29253C5
:020571001AF777
:010573002265
:0203DF008F2964
:1003E100E51A30E703120769431A40531ADFC29630
:1003F100E51A30E21FC2927FA01207A5E4F52AE5B3
:100401002AC39529500A12068C1207A5052A80EFE6
:10041100D292801DC2927FB01207A5E4F52AE52A87
:10042100C39529500A12068C1207A5052A80EFD21E
:0304310092D296CE
:0104340022A5
:0B07BF00EF1FAC0670011E4C70F6220C
:10000600AB07AA06EB1BAE0270011A4E60097F64AD
:080016007E001207BF80ED22FD
:1005D70043483D0041434B3D003F3D0041434B00F5
:1005E7004E4F41434B0041542BFF05D70303FF06F2
:1005F70062FF05DB0402FF073BFF05E00200FF0483
:01060700866C
:1004F800013300013400C10107350000000000008D
:0105080000F2
:1005A600300111E534C39407500AAF34053474356D
:1005B6002FF8A699E5339005ED93B5990405338098
:1005C60003E4F533E533B40307D201E4F533F53438
:0105D6002202
:060635008B2A8A2B892CA0
:10063B00E4FFEFC39D501DAB2AAA2BA92C8F82750B
:10064B008300120164FE74352FF8E66E60037F00A1
:06065B00220F80DE7F018A
:010661002276
:100026002001030200BEE4F529E52975F008A424A1
:10003600F4F582E43405F583E493FFE52975F008C9
:10004600A424F3F582E43405F583E4932FFFE43327
:10005600FEC3E5349FEE6480F8748098404EE5292F
:1000660075F008A424F0F582E43405F583E493FBE7
:10007600740193FA740293F9E52975F008A424F340
:10008600F582E43405F583E493FD120635EF601C32
:10009600C201E52975F008A424F5F582E43405F5D6
:1000A60083740193FA740293F91201C50529E529AF
:0800B600C39403500302002F64
:0100BE00221F
:100662009005F3E493FF2436F8E624D075F00AA44B
:10067200FE74352FF8E624D075F064A42EFE74378C
:0A0682002FF8E624D02EFF020792A5
:10073B009005FBE4932435F8E6FEB43103431A0429
:07074B00EEB43003531AFB6A
:010752002284
:10048600E51A7BFF30E2067A0579E380047A05797E
:10049600E71206D87BFF7A0579D71206D8E50875E4
:1004A600F064842430FF1207CAE50875F06484E519
:1004B600F075F00A842430FF1207CAE50875F00AC1
:0904C60084E5F02430FF0207CAAE
:030000000200BF3C
:0C00BF00787FE4F6D8FD7581B9020106D7
:10014B00BB010689828A83E0225002E722BBFE02B2
:09015B00E32289828A83E49322E5
:10016400BB010CE58229F582E5833AF583E0225050
:1001740006E92582F8E622BBFE06E92582F8E2229A
:0D018400E58229F582E5833AF583E49322B4
:10019100BB010689828A83F0225002F722BBFE014D
:0201A100F32247
:1001A300F8BB010DE58229F582E5833AF583E8F092
:1001B300225006E92582C8F622BBFE05E92582C83E
:0201C300F22226
:0601C5008A838982E473C5
:1000CB000202B7E493A3F8E493A34003F68001F292
:1000DB0008DFF48029E493A3F85407240CC8C33336
:1000EB00C4540F4420C8834004F456800146F6DF05
:1000FB00E4800B01020408102040809004CFE47EC2
:10010B00019360BCA3FF543F30E509541FFEE493F9
:10011B00A360010ECF54C025E060A840B8E493A3C0
:10012B00FAE493A3F8E493A3C8C582C8CAC583CAEB
:10013B00F0A3C8C582C8CAC583CADFE9DEE780BEA3
:0105090000F1
:00000001FF
